:020000040800F2
:100000000000022405D80108E1070008E9070008FC
:10001000F1070008F90700080108000800000000C7
:10002000000000000000000000000000A15B0108CB
:100030000908000800000000F15D01087154010882
:1000400055D8010855D8010855D8010855D80108D8
:1000500055D8010855D8010855D8010855D80108C8
:1000600055D8010855D8010855D8010819080008C5
:100070002D08000841080008550800086908000814
:100080007D0800089108000855D80108A508000857
:10009000B9080008CD080008E108000855D8010893
:1000A00055D8010855D8010855D8010855D8010878
:1000B00055D8010855D8010855D8010855D8010868
:1000C00055D8010855D8010855D8010855D8010858
:1000D000F50800080909000855D801081D0900089D
:1000E00055D8010855D80108000000003109000862
:1000F000450900085909000855D801086D0900088C
:1001000055D8010855D8010855D8010855D8010817
:1001100055D801088109000855D8010855D80108AB
:100120009509000855D8010855D80108A909000803
:10013000BD09000855D8010855D8010855D801084F
:1001400000000000000000000000000000000000AF
:1001500055D8010855D8010855D8010855D80108C7
:1001600055D8010855D8010855D8010855D80108B7
:1001700055D80108D109000855D801080000000031
:1001800055D8010855D80108E509000855D80108D7
:1001900055D8010855D8010855D8010855D8010887
:1001A00055D8010855D8010855D8010800000000AD
:1001B00055D8010855D8010855D8010855D8010867
:1001C00055D8010855D801080000000000000000C3
:1001D000000000000000000055D8010800000000E9
:1001E000000000000000000000000000000000000F
:1001F000000000000000000055D8010855D8010893
:1002000055D8010855D801080000000055D801084C
:1002100055D8010855D8010855D8010855D8010806
:1002200055D801080000000055D801080000000062
:1002300055D8010855D801080000000055D801081C
:1002400055D8010855D8010855D8010855D80108D6
:1002500055D8010855D8010855D8010855D80108C6
:1002600055D8010855D8010855D8010855D80108B6
:1002700055D8010855D8010855D8010800000000DC
:1002800055D8010855D8010855D8010855D8010896
:100290000000000055D8010855D8010800000000F2
:1002A0000000000055D8010855D8010855D80108AC
:1002B000F909000855D8010855D801080D0A0008A9
:0C02C000210A0008350A000855D8010882
:1002D00010F8012B11F8013B012A28BF9A42F7D0F0
:1002E000D01A70470000000000000000000000006D
:1002F00001F0FF01102A2BDB10F0070F08D010F8D7
:10030000013B013A8B422DD010F0070F42B3F6D1DA
:10031000F0B441EA012141EA014122F007047FF0F3
:1003200000070023F0E80256083C85EA010586EA4A
:10033000010685FA47F5A3FA87F586FA47F6A5FA86
:1003400087F68EB9EED1F0BC01F0FF0102F0070292
:1003500032B110F8013B013A83EA010313B1F8D13D
:100360000020704701387047002D06BF354603381E
:10037000073815F0010F07D1013015F4807F02BF57
:10038000013015F4C03F0130F0BC0138704700BFA8
:10039000034613F8012B002AFBD1181A01387047C5
:1003A00070B4840746D04C1E002941D0D5B2034614
:1003B00002E0611EE4B30C4603F8015B9907F8D133
:1003C000032C2ED9D5B245EA05250F2C45EA054563
:1003D00019D9264603F11001103E0F2E41F8105C8A
:1003E00041F80C5C41F8085C41F8045C01F1100133
:1003F000F2D8A4F1100121F00F0104F00F04103124
:10040000032C0B440DD91E4621460439032946F816
:10041000045BFAD8211F21F0030104310B4404F0DE
:1004200003042CB1D2B21C4403F8012BA342FBD12C
:1004300070BC70470C460346C2E7000053B94AB986
:10044000002908BF00281CBF4FF0FF314FF0FF30DC
:1004500000F00CB8ADF1080C6DE904CE20F0C8FF37
:10046000DDF804E0DDE9022304B07047704700BF07
:100470000348044B834202D0034B03B11847704733
:100480001003002410030024000000000548064B60
:100490001B1AD90F01EBA301491002D0034B03B182
:1004A00018477047100300241003002400000000C8
:1004B00010B5064C237843B9FFF7DAFF044B13B1AC
:1004C0000448AFF300800123237010BD1003002403
:1004D00000000000AC16020808B5054B1BB1054929
:1004E0000548AFF30080BDE80840FFF7CFBF00BF6D
:1004F0000000000014030024AC16020880B500AF11
:1005000000F0D0F809F0F4FE00F04AF815F0FCFD18
:1005100015F056FF15F0D4FF16F060F816F050FBFA
:1005200016F060FD16F02EFE16F050FE16F0A0FB41
:1005300016F05AFF16F0A8FF17F08EF816F0DEF846
:1005400000F030F917F038F816F0EAFF16F0A4FDC5
:100550001DF0AEF818F056FB19F0D2F91BF02EFE84
:100560001DF0A0F81BF0F0F91BF04EFD0A4810F04A
:100570006EFD1CF01BFF1BF0DBFC1BF039FC9FED3C
:10058000070A1CF007F814F08DFF12F0EDFD14F0CF
:10059000ADFF00BFFDE700BF30030024000048426C
:1005A00080B59CB000AF07F124034C22002118460F
:1005B0001DF041FF3B1D2022002118461DF03BFF8E
:1005C000022009F0C1FC00233B60354B9B69344A93
:1005D00023F440439361324B9B6903F440433B60F7
:1005E0003B6800BF2E4B9B6903F40053B3F5005FDB
:1005F000F8D12B237B624FF48033BB6201233B6332
:1006000040237B630123BB630123FB630223BB64A1
:100610000223FB6402233B6528237B650123BB6522
:100620000423FB6502233B660C237B660023BB6629
:100630000023FB6607F12403184603F0B5FD0346CB
:10064000002B01D000F0A8F83F237B600323BB60A0
:100650000023FB6008233B6140237B614023BB6197
:100660004FF48063FB6140233B623B1D032118462E
:1006700004F074F90346002B01D000F08DF84FF41C
:1006800080220021002004F01FFB4FF48022002173
:10069000012004F019FB00BF7037BD4680BD00BFCC
:1006A0000048025880B584B000AF3B4600221A6073
:1006B0005A609A60DA6009F0A3FD01233B700023C1
:1006C0007B704FF000637B6013233B7200237B72CF
:1006D0000123BB720523FB7200233B7300237B7352
:1006E0000123BB730023FB733B46184609F0C0FD92
:1006F00001237B704FF000537B601A233B72EE2383
:100700007B720323FB720023BB733B46184609F040
:10071000AFFD02237B703B46184609F0A9FD032379
:100720007B703B46184609F0A3FD04237B703B46D3
:10073000184609F09DFD042009F07AFD00BF10372E
:10074000BD4680BD80B582B000AF78607B681B6815
:100750000E4A934202D109F007FE13E07B681B6842
:100760000B4A93420ED11BF085FD0A4B1B78042BDC
:1007700002D9084B00221A70064B1B780133DAB2FB
:10078000044B1A7000BF0837BD4680BD00E0004032
:10079000001C00402C03002480B400AF72B600BFE0
:1007A00000BFFDE780B500AF0B4B0C4A1A600A4B47
:1007B00006225A60084B40F6FF72DA60064B40F69C
:1007C000FF729A60044810F0F1FB0346002B01D041
:1007D000FFF7E2FF00BF80BD30030024004800584F
:1007E00080B400AF00BFFDE780B400AF00BFFDE7FD
:1007F00080B400AF00BFFDE780B400AF00BFFDE7ED
:1008000080B400AF00BFFDE780B400AF00BFBD46BD
:100810005DF8047B7047000080B500AF024808F027
:1008200081F800BF80BD00BF786C002480B500AFA8
:10083000024808F077F800BF80BD00BFF06C0024CC
:1008400080B500AF024808F06DF800BF80BD00BF62
:100850007C71002480B500AF024808F063F800BF47
:1008600080BD00BFF471002480B500AF024808F0DD
:1008700059F800BF80BD00BF6C72002480B500AF86
:10088000024808F04FF800BF80BD00BFC4740024C8
:1008900080B500AF024808F045F800BF80BD00BF3A
:1008A0003C75002480B500AF02480BF063F900BF2F
:1008B00080BD00BF8469002480B500AF02480BF002
:1008C00059F900BF80BD00BF246A002480B500AF85
:1008D00002480BF04FF900BF80BD00BF84690024BF
:1008E00080B500AF02480BF045F900BF80BD00BFE6
:1008F000246A002480B500AF02480CF08BFC00BFD6
:1009000080BD00BF686B002480B500AF02480EF0C8
:10091000DFFA00BF80BD00BFC06F002480B500AF0C
:1009200002480EF0D5FA00BF80BD00BF547000240D
:1009300080B500AF02480DF03FFA00BF80BD00BF98
:10094000B46D002480B500AF02480DF035FA00BF49
:1009500080BD00BF006E002480B500AF02480DF0DE
:100960002BFA00BF80BD00BF4C6E002480B500AFE5
:10097000024807F0D7FF00BF80BD00BFD47300243A
:1009800080B500AF02480EF0A3FA00BF80BD00BFE3
:10099000986E002480B500AF024807F0C3FF00BF87
:1009A00080BD00BF4C74002480B500AF024807F042
:1009B000B9FF00BF80BD00BFE472002480B500AF66
:1009C000024807F0AFFF00BF80BD00BF5C7300248A
:1009D00080B500AF024800F030FF00BF80BD00BF0F
:1009E0000019002480B500AF02480EF071FA00BF74
:1009F00080BD00BF2C6F002480B500AF02480EF010
:100A000067FA00BF80BD00BFE870002480B500AF6A
:100A100002480BF0AFF800BF80BD00BFC46A0024DD
:100A200080B500AF02480BF0A5F800BF80BD00BF45
:100A3000C46A002480B500AF02480DF0BDF900BFC4
:100A400080BD00BF4003002480B582B000AF0C4BD6
:100A5000D3F8F4300A4A43F00203C2F8F430084BEA
:100A6000D3F8F43003F002037B607B6800220F218F
:100A70006FF0010009F08EFB00BF0837BD4680BD56
:100A80000044025880B58EB000AF78607B680F2BB1
:100A900044D800227968A12009F07CFBA12009F04C
:100AA00093FB244A7B681360234BD3F8EC30224A33
:100AB00043F08073C2F8EC301F4BD3F8EC3003F0F6
:100AC0008073BB60BB6807F10C0207F1100311468D
:100AD000184604F039FB04F021FB03465B007B63FE
:100AE0007B6B164AA2FB03239B0C013B3B63144B1D
:100AF000144A1A60124B40F2E732DA60104A3B6B3C
:100B000053600F4B00221A610D4B00229A600C4873
:100B10000CF083FE0346002B07D101E0012305E022
:100B200007480CF04FFF034600E001231846383712
:100B3000BD4680BD780000240044025883DE1B437C
:100B40004003002400E0004080B500AF01221349BB
:100B5000134810F005FB0346002B01D0FFF71CFEE5
:100B600010490F4810F02CFB0346002B01D0FFF773
:100B700013FE0D490A4812F01FFA0346002B01D05C
:100B8000FFF70AFE064810F051FB0346002B01D088
:100B9000FFF702FE09F012FA00BF80BD100000242A
:100BA0008C030024940000246400002480B483B0EB
:100BB00000AF03463960FB713B6812221A80034B79
:100BC00018460C37BD465DF8047B704730000024A2
:100BD00080B483B000AF03463960FB713B680422E8
:100BE0001A80034B18460C37BD465DF8047B7047EE
:100BF0004400002480B582B000AF03463960FB7129
:100C0000FB79002B05D13A680749084811F0E8FC48
:100C100004E03A680449054811F0E2FC024B18462A
:100C20000837BD4680BD00BF680600246821020861
:100C300080B582B000AF03463960FB713A68044961
:100C4000044811F0CDFC024B18460837BD4680BD64
:100C5000680600248021020880B582B000AF0346F8
:100C60003960FB713B681A221A8000F043F8024B8E
:100C700018460837BD4680BD4800002480B582B0C4
:100C800000AF03463960FB71FB79002B05D13A6850
:100C90000749084811F0A4FC04E03A6804490548F3
:100CA00011F09EFC024B18460837BD4680BD00BFC0
:100CB000680600249421020880B582B000AF034684
:100CC0003960FB71FB79002B05D13A680749084868
:100CD00011F086FC04E03A680449054811F080FCF4
:100CE000024B18460837BD4680BD00BF6806002489
:100CF000A021020880B584B000AF0F4B1B68FB60D9
:100D00000E4B1B68BB600E4B1B687B60FA687B68F0
:100D10001344FB60FB68002B09D008220949F868DE
:100D200000F014F804220849B86800F00FF800BF7A
:100D30001037BD4680BD00BF00E8F11F04E8F11F79
:100D400008E8F11F4A0000245A00002480B487B04C
:100D500000AFF860B9601346FB710023FB750023F8
:100D6000FB7527E0FB681B0F092B0BD8FB681B0FDB
:100D7000DAB2FB7D5B001946BB680B443032D2B25D
:100D80001A700AE0FB681B0FDAB2FB7D5B001946A4
:100D9000BB680B443732D2B21A70FB681B01FB6090
:100DA000FB7D5B000133BA68134400221A70FB7D9F
:100DB0000133FB75FA7DFB799A42D3D300BF00BFA4
:100DC0001C37BD465DF8047B7047000080B500AF5E
:100DD00000220849084812F009F90849064812F0AB
:100DE00027F980220649074817F01CFD0023184602
:100DF00080BD00BF001100248C03002400090024E2
:100E000068080024E808002480B400AF00231846D6
:100E1000BD465DF8047B704780B483B000AF0346E5
:100E20003960FB711346BB80FB79232B4AD801A2A2
:100E300052F823F0C50E0008C50E0008C50E0008C4
:100E4000C50E0008C50E0008C50E0008C50E000836
:100E5000C50E0008C50E0008C50E0008C50E000826
:100E6000C50E0008C50E0008C50E0008C50E000816
:100E7000C50E0008C50E0008C50E0008C50E000806
:100E8000C50E0008C50E0008C50E0008C50E0008F6
:100E9000C50E0008C50E0008C50E0008C50E0008E6
:100EA000C50E0008C50E0008C50E0008C50E0008D6
:100EB000C50E0008C50E0008C50E0008C50E0008C6
:100EC000C50E000800BF002318460C37BD465DF86C
:100ED000047B704780B582B000AF786039603B68B2
:100EE0001B689BB2194678681CF0C2FB79680548FC
:100EF00012F09EF8034812F0F9F80023184608375C
:100F0000BD4680BD8C03002480B584B000AF7860FE
:100F10000B467B800023FB730D4BD3F8BC32BB60C8
:100F2000BB68D3F81432002B01D001230BE07B887F
:100F30001A467968064812F059F8054812F096F8F2
:100F40000346FB73FB7B18461037BD4680BD00BFD0
:100F50008C03002480B598B000AFF860B9601346E8
:100F6000FB71002387F85F300C4BDB68002B0FD040
:100F700007F1140340221946084817F0F2FCB8653F
:100F8000BB6D9AB207F1140311461846FFF7BCFF78
:100F900097F95F3018466037BD4680BDE8080024E9
:100FA00080B5B2B000AF786007F11003B82200211D
:100FB00018461DF040FA7B681B681A4A93422CD1F0
:100FC0004FF480224FF00003C7E904234FF440138D
:100FD000C7F8943007F11003184604F0F7F80346F9
:100FE000002B01D0FFF7D8FB08F0E8FF0E4BD3F839
:100FF000D8300D4A43F00073C2F8D8300A4BD3F80A
:10100000D83003F00073FB60FB68002205214D20FF
:1010100009F0C0F84D2009F0D7F800BFC837BD4629
:1010200080BD00BF000004400044025880B582B07B
:1010300000AF78607B68D3F8E0247B6803F29C43C0
:101040001946104610F03FF900BF0837BD4680BD75
:1010500080B582B000AF78600B46FB707B68D3F838
:10106000E004FA7879681346DB0013449B000B44D4
:1010700003F518731A68FB78194610F079F900BF68
:101080000837BD4680BD80B582B000AF78600B46A2
:10109000FB707B68D3F8E004FA7879681346DB00CC
:1010A00013449B000B4420331A68FB78194610F058
:1010B00012FA00BF0837BD4680BD80B582B000AFD0
:1010C00078607B68D3F8E034184610F04CFB00BF22
:1010D0000837BD4680BD80B584B000AF786001237D
:1010E000FB737B68DB79002B02D10023FB7308E0E4
:1010F0007B68DB79022B02D10123FB7301E0FFF750
:101100004BFB7B68D3F8E034FA7B1146184610F0AD
:10111000E6FA7B68D3F8E034184610F08EFA00BF88
:101120001037BD4680BD000080B582B000AF78604A
:101130007B68D3F8E034184610F0E1FA7B681B684E
:1011400003F560631B687A68126802F5606243F019
:10115000010313607B68DB7A002B05D0044B1B690D
:10116000034A43F00603136100BF0837BD4680BD44
:1011700000ED00E080B582B000AF78607B68D3F806
:10118000E034184610F0D7FA00BF0837BD4680BDDE
:1011900080B582B000AF78600B46FB707B68D3F8F7
:1011A000E034FA781146184610F02FFB00BF0837DC
:1011B000BD4680BD80B582B000AF78600B46FB7045
:1011C0007B68D3F8E034FA781146184610F0EBFA51
:1011D00000BF0837BD4680BD80B582B000AF7860E3
:1011E0007B68D3F8E034184610F041FB00BF0837A5
:1011F000BD4680BD80B582B000AF78607B68D3F813
:10120000E034184610F03EFB00BF0837BD4680BDF5
:1012100080B582B000AF78607B681B78012B40D12D
:10122000224A7B68C2F8E0347B68204AC3F8C822AF
:101230001E4B1F4A1A601D4B09221A711B4B0222BA
:10124000DA711A4B00229A71184B02225A72174B0C
:1012500000229A72154B0022DA72144B00221A7384
:10126000124B00229A73114B0022DA730F4B0022AB
:101270001A740E4800F0A0F90346002B01D0FFF7C6
:101280008BFA4FF40071094801F0F5FB8022002130
:10129000064801F0A9FB4FF4BA720121034801F09E
:1012A000A3FB002318460837BD4680BD0019002463
:1012B0000000044080B584B000AF78600023FB7369
:1012C0000023BB737B68D3F8C832184600F080FA5D
:1012D0000346FB73FB7B184600F042F90346BB73E1
:1012E000BB7B18461037BD4680BD80B584B000AFCB
:1012F0007860084611461A460346FB700B46BB70E1
:1013000013463B800023FB730023BB737B68D3F839
:10131000C802BB783A88F97800F081FF0346FB7376
:10132000FB7B184600F01CF90346BB73BB7B1846D9
:101330001037BD4680BD80B584B000AF78600B46E5
:10134000FB700023FB730023BB737B68D3F8C832A8
:10135000FA781146184600F0CCFF0346FB73FB7B7E
:10136000184600F0FDF80346BB73BB7B18461037E8
:10137000BD4680BD80B584B000AF78600B46FB7081
:101380000023FB730023BB737B68D3F8C832FA7861
:101390001146184601F084F80346FB73FB7B1846A0
:1013A00000F0DEF80346BB73BB7B18461037BD4622
:1013B00080BD80B584B000AF78600B46FB70002321
:1013C000FB730023BB737B68D3F8C832FA781146ED
:1013D000184601F0C8F80346FB73FB7B184600F083
:1013E000BFF80346BB73BB7B18461037BD4680BDB4
:1013F00080B485B000AF78600B46FB707B68D3F893
:10140000C832FB6097F90330002B0BDAFB7803F04E
:101410007F02F9681346DB0013449B000B4416332C
:101420001B780BE0FB7803F07F02F9681346DB00C2
:1014300013449B000B4403F256231B7818461437C1
:10144000BD465DF8047B704780B584B000AF78601E
:101450000B46FB700023FB730023BB737B68D3F840
:10146000C832FA781146184600F0B5FE0346FB7301
:10147000FB7B184600F074F80346BB73BB7B184631
:101480001037BD4680BD80B586B000AFF8607A6089
:101490003B600B46FB720023FB750023BB75FB68AA
:1014A000D3F8C802F97A3B687A6800F0BFFF0346B8
:1014B000FB75FB7D184600F053F80346BB75BB7DFA
:1014C00018461837BD4680BD80B586B000AFF860BD
:1014D0007A603B600B46FB720023FB750023BB75F3
:1014E000FB68D3F8C802F97A3B687A6800F04BFFD2
:1014F0000346FB75FB7D184600F032F80346BB75CA
:10150000BB7D18461837BD4680BD80B582B000AFA0
:1015100078600B46FB707B68D3F8C832FA781146C6
:10152000184600F06BFF034618460837BD4680BDDD
:1015300080B483B000AF7860034B18460C37BD46CB
:101540005DF8047B704700BFE41D002480B483B0C5
:1015500000AF786000BF0C37BD465DF8047B704774
:1015600080B485B000AF0346FB710023FB73FB79A9
:10157000032B17D801A252F823F000BF8D150008E5
:1015800093150008991500089F1500080023FB73A8
:101590000BE00323FB7308E00123FB7305E0032347
:1015A000FB7302E00323FB7300BFFB7B1846143779
:1015B000BD465DF8047B704780B586B002AF7860A9
:1015C0007B68002B01D10123FEE07B6893F8953402
:1015D000DBB2002B06D17B68002283F89424786864
:1015E000FFF7DEFC7B68032283F895247B681B6889
:1015F000184601F0A6FB7B6818687B681A7C8DF89A
:10160000002004330ECB01F077FA0346002B05D0FF
:101610007B68022283F895240123D5E07B681B6850
:101620000021184601F09EFB0346002B05D07B6885
:10163000022283F895240123C6E00023FB734AE0CD
:10164000FA7B79681346DB0013449B000B44153387
:1016500001221A70FA7B79681346DB0013449B0061
:101660000B441433FA7B1A70FA7BFB7B98B27968CF
:101670001346DB0013449B000B442E3302461A80B2
:10168000FA7B79681346DB0013449B000B44183344
:1016900000221A70FA7B79681346DB0013449B0022
:1016A0000B441C3300221A60FA7B79681346DB0076
:1016B00013449B000B44203300221A60FA7B7968A4
:1016C0001346DB0013449B000B44243300221A60B2
:1016D000FB7B0133FB737B681B79FA7B9A42AFD3A8
:1016E0000023FB7344E0FA7B79681346DB00134464
:1016F0009B000B4403F2552300221A70FA7B796891
:101700001346DB0013449B000B4403F51573FA7B6F
:101710001A70FA7B79681346DB0013449B000B4474
:1017200003F5167300221A70FA7B79681346DB0002
:1017300013449B000B4403F5177300221A60FA7BD5
:1017400079681346DB0013449B000B4403F51873C0
:1017500000221A60FA7B79681346DB0013449B0071
:101760000B4403F5197300221A60FB7B0133FB73F2
:101770007B681B79FA7B9A42B5D37B6818687B68D3
:101780001A7C8DF8002004330ECB01F037FB0346A2
:10179000002B05D07B68022283F89524012313E0F7
:1017A0007B6800225A747B68012283F895247B6849
:1017B0001B7B012B02D1786801F06EF97B681B68F6
:1017C000184602F07AFB002318461037BD4680BD4C
:1017D00080B584B000AF78607B681B68FB607B6875
:1017E00093F89434012B01D1022322E07B6801227B
:1017F00083F89424FB68DB6803F04003002B09D0D6
:101800007B685B7B012B05D1FB689B6B43F48032CB
:10181000FB689A637B681B68184601F081FA7B6855
:101820001B68184602F028FB7B68002283F894248A
:10183000002318461037BD4680BD90B58DB000AF6F
:1018400078607B681B683B623B6AFB617B681B6856
:10185000184602F0E6FB0346002B40F0B9847B6893
:101860001B68184602F04AFB0346002B00F0AF84C9
:10187000FB6903F500639B681B0AC3F30D027B68D9
:10188000C3F8D4247B681B68184602F037FB034674
:1018900003F00203022B07D17B681B685A697B683F
:1018A0001B6802F002025A617B681B68184602F04E
:1018B00025FB034603F01003102B61D17B681B68E6
:1018C0009A697B681B6822F010029A613B6A1B6A66
:1018D000BB61BB6903F00F021346DB0013449B009E
:1018E00003F514737A68134404337B61BB6903F412
:1018F000F013B3F5802F24D1BA6947F6F073134083
:10190000002B35D07B69D968BB691B099BB2C3F337
:101910000A039BB21A46386A02F05CF97B69DA68FE
:10192000BB691B09C3F30A031A447B69DA607B694C
:101930005A69BB691B09C3F30A031A447B695A61DC
:1019400016E0BB6903F4F013B3F5402F10D17B68A8
:1019500003F29C4308221946386A02F03BF97B697E
:101960005A69BB691B09C3F30A031A447B695A61AC
:101970007B681B689A697B681B6842F010029A6159
:101980007B681B68184602F0B9FA034603F400238B
:10199000B3F5002F40F0A78000237B627B681B68B3
:1019A000184602F0BEFAB86299E0BB6A03F0010380
:1019B000002B00F08E807B681B687A6AD2B21146D9
:1019C000184602F0E2FA38613B6903F00103002B8C
:1019D0000CD07B6A5A01FB69134403F530631A4645
:1019E00001239360796A786800F0D0FE3B6903F0C8
:1019F0000803002B0CD07B6A5A01FB69134403F5E2
:101A000030631A4608239360796A786800F0A6FF6D
:101A10003B6903F01003002B08D07B6A5A01FB6975
:101A2000134403F530631A46102393603B6903F0B7
:101A30000203002B30D03B6A5B6903F08003802BEC
:101A400009D1FB6903F500635B68FA6902F500627E
:101A500043F4806353607A6A1346DB0013449B00AF
:101A600003F514737A68134404337B617B69DB7874
:101A7000012B08D17B690022DA707B6ADBB2194640
:101A80007868FFF785FB7B6A5A01FB69134403F50D
:101A900030631A46022393603B6903F02003002B56
:101AA00008D07B6A5A01FB69134403F530631A4678
:101AB000202393603B6903F40053002B09D07B6A19
:101AC0005A01FB69134403F530631A464FF400537F
:101AD00093607B6A01337B62BB6A5B08BB62BB6A53
:101AE000002B7FF462AF7B681B68184602F006FA91
:101AF000034603F48023B3F5802F40F0DB807B683E
:101B00001B68184602F027FAB86200237B62CDE01A
:101B1000BB6A03F00103002B00F0C2807B681B68E6
:101B20007A6AD2B21146184602F04DFA38613B6922
:101B300003F00103002B57D07B6A03F00F0301224F
:101B400002FA03F3FB60FB6903F500635A6BFB6861
:101B5000DB43F96901F5006113404B637B6A5A016D
:101B6000FB69134403F510631A46012393607B68F5
:101B70009B79012B32D179687A6A1346DB001344D2
:101B80009B000B442033196878687A6A1346DB009F
:101B900013449B0003441C331B68194478687A6A19
:101BA0001346DB0013449B000344203319607B6A17
:101BB000002B13D179687A6A1346DB0013449B002B
:101BC0000B4424331B68002B08D17B6818687B68A2
:101BD00003F29C431A46012102F056FA7B6ADBB2FB
:101BE00019467868FFF74FFA3B6903F00803002BAA
:101BF00008D07B6A5A01FB69134403F510631A4647
:101C0000082393603B6903F01003002B08D07B6A24
:101C10005A01FB69134403F510631A4610239360BD
:101C20003B6903F04003002B08D07B6A5A01FB6933
:101C3000134403F510631A46402393603B6903F095
:101C40000203002B23D0796A386A01F035FA7A6AE8
:101C50001346DB0013449B0010337A6813440433AB
:101C60007B617B69DB78012B08D17B690022DA700C
:101C70007B6ADBB219467868FFF79CFA7B6A5A01E7
:101C8000FB69134403F510631A46022393603B6912
:101C900003F08003002B03D0796A786800F0EAFC37
:101CA0007B6A01337B62BB6A5B08BB62BB6A002B49
:101CB0007FF42EAF7B681B68184602F01FF90346BD
:101CC00003F00043B3F1004F22D1FB6903F5006339
:101CD0005B68FA6902F5006223F0010353607B68D8
:101CE00093F8CC34012B08D17B68002283F8CC24F4
:101CF0000021786800F0F4FE02E07868FFF73AFA15
:101D00007B681B685A697B681B6802F000425A6155
:101D10007B681B68184602F0F1F8034603F4006381
:101D2000B3F5006F12D1FB6903F500639B6803F004
:101D30000103012B02D17868FFF7F6F97B681B6875
:101D40005A697B681B6802F400625A617B681B68F1
:101D5000184602F0D3F8034603F00063B3F1006FB6
:101D600021D17B681B685A697B681B6802F000629E
:101D70005A617B6893F8CC34002B11D17B68012227
:101D800083F8CC247B681B685B6D9B0803F00F0213
:101D90007B68C3F8D0240121786800F0A1FE02E03E
:101DA0007868FFF7C1F97B681B68184602F0A6F84F
:101DB000034603F48053B3F5805F40F0B780FB69BE
:101DC00003F500635B68FA6902F5006223F0010322
:101DD00053607B681B681021184601F06DF90023E1
:101DE000FB6246E0FB6A5A01FB69134403F510638A
:101DF0001A464FF67F339360FB6A5A01FB6913441E
:101E000003F510631B68FA6A5101FA690A4402F586
:101E1000106223F400131360FB6A5A01FB69134438
:101E200003F530631A464FF67F339360FB6A5A011D
:101E3000FB69134403F530631B68FA6A5101FA69C0
:101E40000A4402F5306223F400131360FB6A5A015E
:101E5000FB69134403F530631B68FA6A5101FA69A0
:101E60000A4402F5306243F000631360FB6A0133F9
:101E7000FB627B681B791A46FB6A9342B2D3FB690B
:101E800003F50063DB69FA6902F5006243F00113B0
:101E9000D3617B68DB7B002B16D0FB6903F5006305
:101EA000D3F88430FA6902F5006243F00B03C2F8FC
:101EB0008430FB6903F500635B6CFA6902F500622C
:101EC00043F00B03536415E0FB6903F500635A69A3
:101ED000FB6903F50063194642F22B0313434B6180
:101EE000FB6903F500631B69FA6902F5006243F0C0
:101EF0000B031361FB6903F500631B68FA6902F5C4
:101F0000006223F4FE6313607B6818687B6899792C
:101F10007B6803F29C431A4602F0B6F87B681B68A4
:101F20005A697B681B6802F480525A617B681B689F
:101F3000184601F0E3FF034603F40053B3F5005FD6
:101F400023D17B681B68184602F07AF87B681B680F
:101F5000184601F02AF903461A467B68DA717B6855
:101F60001C6803F095F801467B68DB791A46204629
:101F700000F034FE7868FFF7AEF87B681B685A699A
:101F80007B681B6802F400525A617B681B68184624
:101F900001F0B4FF034603F00803082B0AD1786868
:101FA000FFF78BF87B681B685A697B681B6802F037
:101FB00008025A617B681B68184601F09FFF0346C0
:101FC00003F08003802B23D13B6A9B6923F08002BE
:101FD0003B6A9A6101237B6214E079687A6A13464E
:101FE000DB0013449B000B4403F257231B78012BA7
:101FF00005D17B6ADBB21946786800F00AFB7B6A80
:1020000001337B627B681B791A467B6A9342E4D377
:102010007B681B68184601F071FF034603F48013C8
:10202000B3F5801F3CD101237B622BE07B6A5A0110
:10203000FB69134403F510631B68BB6179687A6A16
:102040001346DB0013449B000B4418331B78012B11
:1020500015D1BB69002B12DA79687A6A1346DB0066
:1020600013449B000B44173301221A707B6ADBB2C6
:1020700063F07F03DBB21946786800F0CAFA7B6A26
:1020800001337B627B681B791A467B6A9342CDD30E
:102090007B681B685A697B681B6802F480125A616E
:1020A0007B681B68184601F029FF034603F4001300
:1020B000B3F5001F56D101237B6245E07B6A5A01CC
:1020C000FB69134403F530631B68BB6179687A6A66
:1020D0001346DB0013449B000B4403F516731B7877
:1020E000012B2ED1BB69002B2BDABB691A0C7B6844
:1020F000D3F8D434534003F00103002B21D1796885
:102100007A6A1346DB0013449B000B4403F2572307
:1021100001221A703B6A9B6943F080023B6A9A6114
:102120003B6A5B6903F08003002B0AD1FB6903F56E
:1021300000635B68FA6902F5006243F40073536060
:1021400008E07B6A01337B627B681B791A467B6AF5
:102150009342B3D37B681B685A697B681B6802F49F
:1021600000125A617B681B68184601F0C7FE0346DF
:1021700003F08043B3F1804F0AD17868FFF72CF861
:102180007B681B685A697B681B6802F080425A6151
:102190007B681B68184601F0B1FE034603F0040398
:1021A000042B15D17B681B685B68BB61BB6903F0BE
:1021B0000403002B02D07868FFF71CF87B681B68CB
:1021C00059687B681B68BA690A435A6000E000BF1F
:1021D0003437BD4690BD80B582B000AF78600B4605
:1021E000FB707B6893F89434012B01D1022312E039
:1021F0007B68012283F894247B68FA785A747B68A0
:102200001B68FA781146184601F010FE7B68002220
:1022100083F89424002318460837BD4680BD80B556
:1022200084B000AF7860084611461A460346FB703A
:102230000B463B801346BB700023FB7297F90330BB
:10224000002B0FDAFB7803F00F021346DB00134478
:102250009B0010337A6813440433FB60FB6801224F
:102260005A700FE0FB7803F00F021346DB001344B3
:102270009B0003F514737A6813440433FB60FB6816
:1022800000225A70FB7803F00F03DAB2FB681A7071
:102290003B88C3F30A02FB689A60FB68BA781A713C
:1022A000FB685B78002B04D0FB681B781A46FB6840
:1022B0005A83BB78022B02D1FB6800225A717B68DB
:1022C00093F89434012B01D102230EE07B680122A4
:1022D00083F894247B681B68F968184600F08AFF2D
:1022E0007B68002283F89424FB7A18461037BD4699
:1022F00080BD80B584B000AF78600B46FB7097F965
:102300000330002B0FDAFB7803F00F021346DB00DB
:1023100013449B0010337A6813440433FB60FB685A
:1023200001225A700FE0FB7803F00F021346DB0026
:1023300013449B0003F514737A6813440433FB6061
:10234000FB6800225A70FB7803F00F03DAB2FB68D7
:102350001A707B6893F89434012B01D102230EE0AC
:102360007B68012283F894247B681B68F96818460F
:1023700000F0C8FF7B68002283F8942400231846ED
:102380001037BD4680BD80B586B000AFF8607A607A
:102390003B600B46FB72FB7A03F00F021346DB0037
:1023A00013449B0003F51473FA68134404337B61F0
:1023B0007B697A68DA607B693A681A617B69002216
:1023C0005A617B6900225A70FB7A03F00F03DAB27C
:1023D0007B691A70FB689B79012B02D17A687B6953
:1023E000DA61FB681868FB689B791A46796901F025
:1023F00065F8002318461837BD4680BD80B483B009
:1024000000AF78600B46FB70FB7803F00F02796831
:102410001346DB0013449B000B4403F51A731B683F
:1024200018460C37BD465DF8047B704780B586B012
:1024300000AFF8607A603B600B46FB72FB7A03F0FA
:102440000F021346DB0013449B001033FA68134459
:1024500004337B617B697A68DA607B693A681A6168
:102460007B6900225A617B6901225A70FB7A03F072
:102470000F03DAB27B691A70FB689B79012B02D1DA
:102480007A687B69DA61FB681868FB689B791A4691
:10249000796901F013F8002318461837BD4680BD4E
:1024A00080B584B000AF78600B46FB70FB7803F01A
:1024B0000F037A681279934201D901234FE097F90B
:1024C0000330002B0FDAFB7803F00F021346DB001A
:1024D00013449B0010337A6813440433FB60FB6899
:1024E00001225A700DE0FA781346DB0013449B007A
:1024F00003F514737A6813440433FB60FB6800220D
:102500005A70FB6801229A70FB7803F00F03DAB26D
:10251000FB681A707B6893F89434012B01D1022375
:102520001DE07B68012283F894247B681B68F968AE
:10253000184601F0A7FBFB7803F00F03002B09D12D
:102540007B6818687B6899797B6803F29C431A461C
:1025500001F09AFD7B68002283F89424002318463A
:102560001037BD4680BD80B584B000AF78600B46A3
:10257000FB70FB7803F00F037A681279934201D95C
:10258000012342E097F90330002B0FDAFB7803F0C8
:102590000F021346DB0013449B0010337A68134488
:1025A0000433FB60FB6801225A700FE0FB7803F0F4
:1025B0000F021346DB0013449B0003F514737A6883
:1025C00013440433FB60FB6800225A70FB6800224E
:1025D0009A70FB7803F00F03DAB2FB681A707B681D
:1025E00093F89434012B01D102230EE07B68012281
:1025F00083F894247B681B68F968184601F0B0FBE7
:102600007B68002283F89424002318461037BD46C7
:1026100080BD80B584B000AF78600B46FB7097F941
:102620000330002B0CDAFB7803F00F021346DB00BB
:1026300013449B0010337A6813440433FB600CE0AE
:10264000FB7803F00F021346DB0013449B0003F5F5
:1026500014737A6813440433FB607B681B68F96861
:10266000184601F0CFF90346FB72FB7A1846103783
:10267000BD4680BD80B58AB002AF786039607B68A6
:102680001B687B617B693B613A681346DB0013443E
:102690009B0010337A6813440433FB60FB685A696B
:1026A000FB681B699A4201D901236BE0FB681A6938
:1026B000FB685B69D31AFB61FB689B68FA699A4205
:1026C00002D9FB689B68FB61FB6903339B08BB6114
:1026D0002AE0FB681A69FB685B69D31AFB61FB6837
:1026E0009B68FA699A4202D9FB689B68FB61FB69A7
:1026F00003339B08BB61FB68D9683B68DAB2FB69AE
:1027000098B27B689B7900930346786901F024FABC
:10271000FB68DA68FB691A44FB68DA60FB685A698F
:10272000FB691A44FB685A613B685A013B691344D0
:1027300003F510639B699BB2BA699A4209D8FB689A
:102740005A69FB681B699A4203D2FB681B69002B1C
:10275000BFD1FB681A69FB685B699A4211D83B6874
:1027600003F00F03012202FA03F3BB603B6903F598
:1027700000635A6BBB68DB43396901F500611340A4
:102780004B63002318462037BD4680BD80B588B016
:1027900000AF786039607B681B68FB61FB69BB61D7
:1027A000FB693C3304331B687B613B685A01BB699E
:1027B000134403F530639B683B617B689B79012B75
:1027C0007BD13B6903F00803002B15D07B69614A7C
:1027D000934240F2B9803B6903F40043002B00F0C0
:1027E000B3803B685A01BB69134403F530631A4652
:1027F0004FF400439360A7E03B6903F02003002BF4
:1028000009D03B685A01BB69134403F530631A468B
:102810002023936098E03B6903F02803002B40F0ED
:1028200093807B694B4A93420FD93B6903F4004381
:10283000002B0AD03B685A01BB69134403F530638F
:102840001A464FF4004393607EE03A681346DB007B
:1028500013449B0003F514737A6813440433FB603C
:10286000FB681A6A3B685901BB690B4403F5306386
:102870001B69C3F31203D21AFB685A613B68002B31
:1028800014D1FB681B69002B09D17B6818687B6831
:1028900003F29C431A46012101F0F6FB06E0FB68B7
:1028A000DA68FB685B691A44FB68DA603B68DBB294
:1028B00019467868FEF7CCFB46E07B69264A9342CE
:1028C00024D13B6903F40043002B0AD03B685A0132
:1028D000BB69134403F530631A464FF40043936019
:1028E00032E03B6903F02003002B08D03B685A011B
:1028F000BB69134403F530631A46202393603B6899
:10290000DBB219467868FEF7A3FB1DE03B68002B9D
:1029100014D179683A681346DB0013449B000B44DA
:1029200003F519731B68002B08D17B6818687B6856
:1029300003F29C431A46002101F0A6FB3B68DBB280
:1029400019467868FEF784FB002318462037BD46F9
:1029500080BD00BF0A30544F0A31544F80B586B055
:1029600000AF786039607B681B687B617B693B6185
:102970007B693C3304331B68FB603B685A013B694D
:10298000134403F530639B68BB60FB68154A9342B0
:102990000ED9BB6803F40043002B09D03B685A01F1
:1029A0003B69134403F530631A464FF400439360C8
:1029B0007868FEF73BFBFB680A4A93420CD97B68B8
:1029C0009B79012B08D17B6818687B6803F29C43D4
:1029D0001A46012101F058FB002318461837BD465E
:1029E00080BD00BF0A30544F80B485B000AF78601E
:1029F0000B46FB7013463B807B681B685B6ABB60C1
:102A0000FB78002B07D13B8819047B681B68BA68E8
:102A10000A439A6228E07B681B689B6A1B0CBA68B1
:102A20001344BB600023FB730DE07B681A68FB7BDB
:102A300040339B0013445B681B0CBA681344BB60B3
:102A4000FB7B0133FB73FA7BFB78013B9A42ECD3AF
:102A50003B8818047B681968FB78013BBA6802431D
:102A600040339B000B445A60002318461437BD4680
:102A70005DF8047B704780B483B000AF78600B468C
:102A80007B807B681B687A885A62002318460C3763
:102A9000BD465DF8047B704780B485B000AF7860B8
:102AA0007B681B68FB607B680122C3F8D8247B68C5
:102AB000002283F8CC24FB689B6943F00062FB682A
:102AC0009A61FB685A6D054B1343FA6853650023FE
:102AD00018461437BD465DF8047B704703000010AC
:102AE00080B483B000AF78600B46FB7000BF0C373A
:102AF000BD465DF8047B704784B080B584B000AFFC
:102B0000786007F11C0080E80E0097F82130012B57
:102B100021D17B689B6B23F480327B689A637B684E
:102B2000DA682C4B13407A68D3607B68DB6823F447
:102B300040127B68DA6097F82830012B05D17B685A
:102B4000DB6843F480127B68DA60786801F0FAFA97
:102B50000346FB731BE07B68DB6843F040027B6845
:102B6000DA60786801F0EEFA0346FB7397F82530D7
:102B7000002B06D17B689B6B43F480327B689A63A1
:102B800005E07B689B6B23F480327B689A63BB7F94
:102B9000012B16D17B68DB6D9AB27B68DA657B68A6
:102BA000DA6D0D4B13437A68D3657B689B6843F0FD
:102BB00006027B689A607B689B6843F020027B6812
:102BC0009A60FB7B18461037BD46BDE8804004B0D4
:102BD000704700BFBFFFBDFF0000EE0380B487B0A9
:102BE00000AFF860B9601346FB71FB79022B65D129
:102BF000BB68414A934206D9BB68404A934202D21D
:102C00000F237B6162E0BB683C4A934206D3BB68FA
:102C10003B4A934202D20E237B6157E0BB68384A9D
:102C2000934206D3BB68374A934202D20D237B619D
:102C30004CE0BB68334A934206D3BB68324A9342A6
:102C400002D80C237B6141E0BB682F4A934206D92E
:102C5000BB682E4A934202D80B237B6136E0BB68E7
:102C60002A4A934206D9BB68294A934202D80A23CA
:102C70007B612BE0BB68264A934206D9BB68254A94
:102C8000934202D209237B6120E0BB68214A934230
:102C900006D3BB68204A934202D808237B6115E023
:102CA000BB681D4A934206D9BB681C4A934202D2B4
:102CB00007237B610AE006237B6107E0FB79002B99
:102CC00002D109237B6101E009237B61FB68DB689A
:102CD00023F47052FB68DA60FB68DA687B699B0258
:102CE00003F470531A43FB68DA60002318461C375C
:102CF000BD465DF8047B7047BFACD800C0E1E4007E
:102D00000024F400807306019F491A01FF2C310151
:102D10003FA44C0100366E011FABA6010048E8013C
:102D200080B483B000AF78607B689B6843F0010299
:102D30007B689A60002318460C37BD465DF8047B1B
:102D4000704780B483B000AF78607B689B6823F0E5
:102D500001027B689A60002318460C37BD465DF877
:102D6000047B704780B584B000AF78600B46FB7081
:102D70000023FB607B68DB6823F0C0427B68DA607D
:102D8000FB78012B15D17B68DB6843F000527B6830
:102D9000DA600A2007F008FBFB680A33FB607868FA
:102DA00001F03FF90346012B1ED0FB68C72BF0D979
:102DB0001AE0FB78002B15D17B68DB6843F080427A
:102DC0007B68DA600A2007F0EFFAFB680A33FB60E1
:102DD000786801F026F90346002B05D0FB68C72B65
:102DE000F0D901E0012305E0FB68C82B01D10123E4
:102DF00000E0002318461037BD4680BD84B080B582
:102E000086B000AF786007F1240080E80E00002350
:102E1000FB757B68FB6000233B6109E07A683B69D6
:102E200040339B00134400225A603B6901333B61ED
:102E30003B690E2BF2D997F82E30002B1CD1FB6882
:102E400003F500635B68FA6802F5006243F0020371
:102E500053607B689B6B23F400127B689A637B68EA
:102E60001B6843F040027B681A607B681B6843F074
:102E700080027B681A6005E07B689B6B43F400125C
:102E80007B689A63FB6803F560631A46002313604E
:102E900097F82930012B0DD197F82730002B04D15A
:102EA0000021786800F068F908E00121786800F0F6
:102EB00063F903E00321786800F05EF91021786877
:102EC00000F0FAF80346002B01D00123FB75786867
:102ED00000F024F90346002B01D00123FB75FB68A9
:102EE00003F500631A4600231361FB6803F50063D2
:102EF0001A4600235361FB6803F500631A4600235A
:102F0000D36100233B6143E03B695A01FB681344F2
:102F100003F510631B6803F00043B3F1004F18D1B1
:102F20003B69002B0AD13B695A01FB68134403F546
:102F300010631A464FF00063136013E03B695A01B7
:102F4000FB68134403F510631A464FF09043136077
:102F500008E03B695A01FB68134403F510631A4605
:102F6000002313603B695A01FB68134403F51063A7
:102F70001A46002313613B695A01FB68134403F5A9
:102F800010631A464FF67F3393603B6901333B6110
:102F900097F824301A463B699342B5D300233B612E
:102FA00043E03B695A01FB68134403F530631B6837
:102FB00003F00043B3F1004F18D13B69002B0AD155
:102FC0003B695A01FB68134403F530631A464FF01E
:102FD0000063136013E03B695A01FB68134403F577
:102FE00030631A464FF09043136008E03B695A0182
:102FF000FB68134403F530631A46002313603B69F2
:103000005A01FB68134403F530631A460023136129
:103010003B695A01FB68134403F530631A464FF6C7
:103020007F3393603B6901333B6197F824301A4644
:103030003B699342B5D3FB6803F500631B69FA68EB
:1030400002F5006223F4807313617B6800229A61A9
:103050007B686FF080425A6197F82630002B05D1CB
:103060007B689B6943F010027B689A617B689A6970
:103070000F4B13437A68936197F82A30002B05D0E1
:103080007B689B6943F008027B689A6197F82E3051
:10309000012B05D17B689A69064B13437A689361CB
:1030A000FB7D18461837BD46BDE8804004B0704728
:1030B00000383C800400004080B485B000AF7860E8
:1030C00039600023FB60FB680133FB60FB68B3F1F0
:1030D000706F01D903231BE07B681B69002BF2DAB8
:1030E0000023FB603B689B0143F020027B681A6170
:1030F000FB680133FB60FB68B3F1706F01D90323F8
:1031000006E07B681B6903F02003202BF0D000232E
:1031100018461437BD465DF8047B704780B485B00F
:1031200000AF78600023FB60FB680133FB60FB6845
:10313000B3F1706F01D9032318E07B681B69002B82
:10314000F2DA0023FB607B6810221A61FB6801330E
:10315000FB60FB68B3F1706F01D9032306E07B6865
:103160001B6903F01003102BF0D00023184614370E
:10317000BD465DF8047B704780B485B000AF7860D1
:103180000B46FB707B68FB60FB6803F500631A6805
:10319000FB78F96801F5006113430B6000231846C2
:1031A0001437BD465DF8047B704780B487B000AF2C
:1031B00078607B683B613B6903F500639B6803F0C3
:1031C0000603FB60FB68002B02D10023FB750AE0BD
:1031D000FB68022B02D0FB68062B02D10223FB7591
:1031E00001E00F23FB75FB7D18461C37BD465DF8DB
:1031F000047B704780B485B000AF786039607B682D
:10320000FB603B681B78BB603B685B78012B39D166
:10321000FB6803F50063DA693B681B7803F00F0372
:10322000012101FA03F39BB2F96801F50061134330
:10323000CB61BB685A01FB68134403F510631B683C
:1032400003F40043002B53D1BB685A01FB681344BD
:1032500003F510631A683B689B68C3F30A013B6877
:103260001B799B041943BB689B050B431A43BB683E
:103270005901FB680B4403F510631946204B1343B7
:103280000B6035E0FB6803F50063DA693B681B7887
:1032900003F00F03012101FA03F31B04F96801F5A0
:1032A00000611343CB61BB685A01FB68134403F50B
:1032B00030631B6803F40043002B19D1BB685A012B
:1032C000FB68134403F530631A683B689B68C3F3DB
:1032D0000A013B681B799B040B431A43BB685901E5
:1032E000FB680B4403F530631946054B13430B6031
:1032F000002318461437BD465DF8047B704700BFB5
:103300000080001080B485B000AF786039607B68C1
:10331000FB603B681B78BB603B685B78012B61D12D
:10332000BB685A01FB68134403F510631B6803F084
:103330000043B3F1004F1FD1BB685A01FB6813442F
:1033400003F510631B68BA685101FA680A4402F574
:10335000106243F000631360BB685A01FB681344BA
:1033600003F510631B68BA685101FA680A4402F554
:10337000106243F080431360FB6803F50063DA6B6F
:103380003B681B7803F00F03012101FA03F39BB2A2
:10339000DB43F96801F500611340CB63FB6803F57B
:1033A0000063DA693B681B7803F00F03012101FA1F
:1033B00003F39BB2DB43F96801F500611340CB6175
:1033C000BB685A01FB68134403F510631A68BB68B5
:1033D0005901FB680B4403F510631946354B134044
:1033E0000B6060E0BB685A01FB68134403F530636F
:1033F0001B6803F00043B3F1004F1FD1BB685A01B3
:10340000FB68134403F530631B68BA685101FA681E
:103410000A4402F5306243F000631360BB685A014E
:10342000FB68134403F530631B68BA685101FA68FE
:103430000A4402F5306243F080431360FB6803F5F1
:103440000063DA6B3B681B7803F00F03012101FA7C
:1034500003F31B04DB43F96801F500611340CB6300
:10346000FB6803F50063DA693B681B7803F00F0320
:10347000012101FA03F31B04DB43F96801F5006144
:103480001340CB61BB685A01FB68134403F53063FA
:103490001A68BB685901FB680B4403F53063194691
:1034A000054B13400B60002318461437BD465DF8EA
:1034B000047B7047007833EC0078F3EF80B58AB076
:1034C00002AFF860B9601346FB71FB68FB61BB6833
:1034D0001B78BB61BB685B78012B40F08581BB68C2
:1034E0001B69002B32D1BB695A01FB69134403F5F8
:1034F00010631A69BB695901FB690B4403F510633A
:103500001946A74B13400B61BB695A01FB69134471
:1035100003F510631B69BA695101FA690A4402F59F
:10352000106243F400231361BB695A01FB69134421
:1035300003F510631A69BB695901FB690B4403F574
:1035400010631946974B13400B6197E0BB695A0112
:10355000FB69134403F510631A69BB695901FB69E0
:103560000B4403F5106319468E4B13400B61BB6986
:103570005A01FB69134403F510631A69BB695901C9
:10358000FB690B4403F510631946854B13400B612F
:10359000BB69002B1AD1BB681A69BB689B689A4249
:1035A00003D9BB689A68BB681A61BB695A01FB6999
:1035B000134403F510631B69BA695101FA690A449F
:1035C00002F5106243F40023136144E0BB681A69FA
:1035D000BB689B6813445A1EBB689B68B2FBF3F33D
:1035E000FB82BB695A01FB69134403F510631A6936
:1035F000FB8AD9046C4B0B40B9694801F969014455
:1036000001F5106113430B61BB681B79012B22D1BB
:10361000BB695A01FB69134403F510631B69BA695E
:103620005101FA690A4402F5106223F0C0431361A4
:10363000BB695A01FB69134403F510631A69FB8ADD
:103640005B0703F0C043B9694801F969014401F51A
:10365000106113430B61BB695A01FB69134403F505
:1036600010631A69BB681B69C3F31203B969480187
:10367000F969014401F5106113430B61FB79012BDA
:103680004BD1BB68DB69002B09D0BB695A01FB69D0
:10369000134403F510631A46BB68DB695361BB68CA
:1036A0001B79012B28D1FB6903F500639B6803F4A8
:1036B0008073002B10D1BB695A01FB69134403F5D9
:1036C00010631B68BA695101FA690A4402F5106275
:1036D00043F0005313600FE0BB695A01FB691344C8
:1036E00003F510631B68BA695101FA690A4402F5CF
:1036F000106243F080531360BB695A01FB691344A5
:1037000003F510631B68BA695101FA690A4402F5AE
:10371000106243F00443136069E1BB695A01FB691D
:10372000134403F510631B68BA695101FA690A442E
:1037300002F5106243F004431360BB681B79012B50
:1037400015D0BB681B69002B00F05181FB6903F5A4
:1037500000635A6BBB681B7803F00F03012101FA69
:1037600003F3F96901F5006113434B633FE1FB6922
:1037700003F500639B6803F48073002B16D1BB69CB
:103780005A01FB69134403F510631B68BA695101C0
:10379000FA690A4402F5106243F00053136015E021
:1037A000FFFF07E00000F8FF0000F81FBB695A01A7
:1037B000FB69134403F510631B68BA695101FA6988
:1037C0000A4402F5106243F080531360BB68D96865
:1037D000BB681A78BB681B6998B2FB7900930346F3
:1037E000F86800F0B9F902E1BB695A01FB691344BA
:1037F00003F530631A69BB695901FB690B4403F592
:10380000306319467C4B13400B61BB695A01FB695D
:10381000134403F530631A69BB695901FB690B4412
:1038200003F530631946754B13400B61BB69002BE0
:103830002FD1BB681B69002B03D0BB689A68BB689B
:103840001A61BB689A68BB681A62BB695A01FB6956
:10385000134403F530631A69BB681B6AC3F3120390
:10386000B9694801F969014401F5306113430B61FD
:10387000BB695A01FB69134403F530631B69BA69DC
:103880005101FA690A4402F5306243F400231361DE
:103890005FE0BB681B69002B23D1BB695A01FB6940
:1038A000134403F530631A69BB689B68C3F31203C2
:1038B000B9694801F969014401F5306113430B61AD
:1038C000BB695A01FB69134403F530631B69BA698C
:1038D0005101FA690A4402F5306243F4002313618E
:1038E00037E0BB681A69BB689B6813445A1EBB6803
:1038F0009B68B2FBF3F3FB82BB689B68FA8A03FB0D
:1039000002F2BB681A62BB695A01FB69134403F5F2
:1039100030631A69FB8AD904394B0B40B9694801F5
:10392000F969014401F5306113430B61BB695A0128
:10393000FB69134403F530631A69BB681B6AC3F360
:103940001203B9694801F969014401F53061134373
:103950000B61FB79012B0DD1BB68DB68002B09D013
:10396000BB68D968BB695A01FB69134403F530632E
:103970000A465A61BB681B79012B28D1FB6903F504
:1039800000639B6803F48073002B10D1BB695A015C
:10399000FB69134403F530631B68BA695101FA6986
:1039A0000A4402F5306243F0005313600FE0BB6934
:1039B0005A01FB69134403F530631B68BA6951016E
:1039C000FA690A4402F5306243F080531360BB6920
:1039D0005A01FB69134403F530631B68BA6951014E
:1039E000FA690A4402F5306243F00443136000238D
:1039F00018462037BD4680BD0000F8FFFFFF07E0F6
:103A00000000F81F80B487B000AF786039600023F1
:103A1000FB600023FB757B683B613B685B78012B97
:103A20004AD13B681B785A013B69134403F5106384
:103A30001B6803F00043B3F1004F40F086803B6801
:103A40001B785A013B69134403F510631B683A68FD
:103A5000127851013A690A4402F5106243F000639A
:103A600013603B681B785A013B69134403F51063EC
:103A70001B683A68127851013A690A4402F51062EB
:103A800043F080431360FB680133FB60FB6842F244
:103A90001072934202D90123FB7556E03B681B78F4
:103AA0005A013B69134403F510631B6803F000439C
:103AB000B3F1004FE7D048E03B681B785A013B69FF
:103AC000134403F530631B6803F00043B3F1004F68
:103AD0003BD13B681B785A013B69134403F53063C3
:103AE0001B683A68127851013A690A4402F530625B
:103AF00043F0006313603B681B785A013B69134431
:103B000003F530631B683A68127851013A690A4438
:103B100002F5306243F080431360FB680133FB60C1
:103B2000FB6842F21072934202D90123FB750CE04C
:103B30003B681B785A013B69134403F530631B68EB
:103B400003F00043B3F1004FE7D0FB7D18461C376C
:103B5000BD465DF8047B704780B489B000AFF86063
:103B6000B96011461A460B46FB711346BB80FB68D1
:103B70007B61BB68FB6197F82830002B23D1BB88A1
:103B800003339B083B610023BB6118E0FB791A03F8
:103B90007B69134403F580531A46FB691B68136065
:103BA000FB690133FB61FB690133FB61FB69013395
:103BB000FB61FB690133FB61BB690133BB61BA691E
:103BC0003B699A42E2D3002318462437BD465DF88C
:103BD000047B704780B48BB000AFF860B9601346C7
:103BE000FB80FB68BB61BB687B62FB889B089BB268
:103BF0007B61FB8803F00303FB8300233B6214E03B
:103C0000BB6903F580531A687B6A1A607B6A0133CB
:103C10007B627B6A01337B627B6A01337B627B6AF6
:103C200001337B623B6A01333B623A6A7B699A42A9
:103C3000E6D3FB8B002B1ED000233B62BB6903F550
:103C400080531A4607F1100312681A603A693B6AFA
:103C5000DBB2DB0022FA03F3DAB27B6A1A703B6A4A
:103C600001333B627B6A01337B62FB8B013BFB834D
:103C7000FB8B002BEAD17B6A18462C37BD465DF8DA
:103C8000047B704780B485B000AF786039607B6892
:103C9000FB603B681B78BB603B685B78012B2CD1D9
:103CA000BB685A01FB68134403F510631B68002BC3
:103CB00012DBBB68002B0FD0BB685A01FB681344B2
:103CC00003F510631B68BA685101FA680A4402F5EB
:103CD000106223F080431360BB685A01FB681344F1
:103CE00003F510631B68BA685101FA680A4402F5CB
:103CF000106243F4001313602BE0BB685A01FB68A9
:103D0000134403F530631B68002B12DBBB68002BE8
:103D10000FD0BB685A01FB68134403F530631B687E
:103D2000BA685101FA680A4402F5306223F0804310
:103D30001360BB685A01FB68134403F530631B68CA
:103D4000BA685101FA680A4402F5306243F400137C
:103D50001360002318461437BD465DF8047B704796
:103D600080B485B000AF786039607B68FB603B68E9
:103D70001B78BB603B685B78012B28D1BB685A017C
:103D8000FB68134403F510631B68BA685101FA68B5
:103D90000A4402F5106223F4001313603B681B7998
:103DA000032B03D03B681B79022B38D1BB685A0127
:103DB000FB68134403F510631B68BA685101FA6885
:103DC0000A4402F5106243F08053136027E0BB6899
:103DD0005A01FB68134403F530631B68BA6851014C
:103DE000FA680A4402F5306223F4001313603B685A
:103DF0001B79032B03D03B681B79022B0FD1BB68C7
:103E00005A01FB68134403F530631B68BA6851011B
:103E1000FA680A4402F5306243F0805313600023CD
:103E200018461437BD465DF8047B704780B485B0F2
:103E300000AF78600B46FB707B68FB60FB6803F5A6
:103E400000631B68FA6802F5006223F4FE631360E6
:103E5000FB6803F500631A68FB781B0103F4FE633B
:103E6000F96801F5006113430B600023184614370D
:103E7000BD465DF8047B704780B485B000AF7860C4
:103E80007B68FB60FB6803F560631B68FA6802F5FA
:103E9000606223F003031360FB6803F500635B6853
:103EA000FA6802F5006223F002035360002318460B
:103EB0001437BD465DF8047B704780B485B000AF11
:103EC00078607B68FB60FB6803F560631B68FA68D9
:103ED00002F5606223F003031360FB6803F50063DF
:103EE0005B68FA6802F5006243F002035360002346
:103EF00018461437BD465DF8047B704780B485B022
:103F000000AF78607B685B69FB607B689B69FA68DF
:103F10001340FB60FB6818461437BD465DF8047B10
:103F2000704780B485B000AF78607B68FB60FB6849
:103F300003F500639B69BB60FB6803F50063DB6905
:103F4000BA681340BB60BB681B0C18461437BD46EB
:103F50005DF8047B704780B485B000AF78607B6803
:103F6000FB60FB6803F500639B69BB60FB6803F5BE
:103F70000063DB69BA681340BB60BB689BB218463C
:103F80001437BD465DF8047B704780B485B000AF40
:103F900078600B46FB707B68FB60FB785A01FB681E
:103FA000134403F530639B68BB60FB6803F5006353
:103FB0005B69BA681340BB60BB6818461437BD46DE
:103FC0005DF8047B704780B487B000AF78600B4623
:103FD000FB707B687B617B6903F500631B693B6158
:103FE0007B6903F500635B6BFB60FB7803F00F03F9
:103FF000FA6822FA03F3DB01DBB23A6913433B614F
:10400000FB785A017B69134403F510639B683A6996
:104010001340BB60BB6818461C37BD465DF8047B87
:10402000704780B483B000AF78607B685B6903F051
:10403000010318460C37BD465DF8047B704700004D
:1040400080B485B000AF78607B68FB60FB6803F5E7
:1040500010631A68FB6803F510631946094B134097
:104060000B60FB6803F500635B68FA6802F50062A9
:1040700043F480735360002318461437BD465DF83F
:10408000047B704700F8FFFF80B487B000AFF86092
:104090000B467A60FB72FB687B61FB683C33043340
:1040A0001B683B613B69264A93420AD97B6903F549
:1040B00030631B6803F00043B3F1004F01D10023CC
:1040C00037E07B6903F530631A46002313617B698F
:1040D00003F530631B697A6902F5306243F400230B
:1040E00013617B6903F530631B697A6902F53062FD
:1040F00043F0180313617B6903F530631B697A6928
:1041000002F5306243F0C0431361FB7A012B0FD1FB
:104110007B6903F530631A467B6853617B6903F55D
:1041200030631B687A6902F5306243F080231360C4
:10413000002318461C37BD465DF8047B704700BF5E
:104140000A30544F80B485B000AF78600023FB6024
:10415000FB680133FB60FB68B3F1706F01D9032387
:104160001BE07B681B69002BF2DA0023FB607B6895
:104170001B6943F001027B681A61FB680133FB6035
:10418000FB68B3F1706F01D9032306E07B681B69FC
:1041900003F00103012BF0D0002318461437BD466D
:1041A0005DF8047B7047000080B58CB000AF78608C
:1041B0007B68002B01D10123C8E37B681B6803F0F7
:1041C0000103002B00F08780884B1B6903F0380344
:1041D000FB62864B9B6ABB62FB6A102B07D0FB6AB3
:1041E000182B10D1BB6A03F00303022B0BD17F4BBA
:1041F0001B6803F40033002B6CD07B685B68002BDA
:1042000068D10123A2E37B685B68B3F5803F06D1E8
:10421000764B1B68754A43F4803313602EE07B684D
:104220005B68002B0CD1714B1B68704A23F4803300
:1042300013606E4B1B686D4A23F4802313601DE0EE
:104240007B685B68B3F5A02F0CD1684B1B68674A8D
:1042500043F480231360654B1B68644A43F4803346
:1042600013600BE0614B1B68604A23F480331360DA
:104270005E4B1B685D4A23F4802313607B685B6898
:10428000002B13D006F084F8786208E006F080F87E
:1042900002467B6AD31A642B01D9032356E3534B9E
:1042A0001B6803F40033002BF0D014E006F070F824
:1042B000786208E006F06CF802467B6AD31A642B39
:1042C00001D9032342E3494B1B6803F40033002B5D
:1042D000F0D100E000BF7B681B6803F00203002BF5
:1042E00000F08C80414B1B6903F038033B623F4B6D
:1042F0009B6AFB613B6A002B07D03B6A182B37D1C6
:10430000FB6903F00303002B32D1384B1B6803F029
:104310000403002B05D07B68DB68002B01D101234F
:1043200014E3324B1B6823F019027B68DB682F49CA
:1043300013430B6006F02CF8786208E006F028F8CA
:1043400002467B6AD31A022B01D90323FEE2274BD4
:104350001B6803F00403002BF0D0244B5B6823F0B0
:10436000FE427B681B691B06204913434B6045E0F6
:104370007B68DB68002B26D01C4B1B6823F01902DE
:104380007B68DB68194913430B6006F001F878621B
:1043900008E005F0FDFF02467B6AD31A022B01D923
:1043A0000323D3E2114B1B6803F00403002BF0D06E
:1043B0000E4B5B6823F0FE427B681B691B060B49B2
:1043C00013434B601AE0094B1B68084A23F00103B2
:1043D000136005F0DDFF78620AE005F0D9FF0246C0
:1043E0007B6AD31A022B03D90323AFE2004402589D
:1043F000964B1B6803F00403002BEED17B681B680F
:1044000003F01003002B6AD0904B1B6903F03803B4
:10441000BB618E4B9B6A7B61BB69082B07D0BB6974
:10442000182B1BD17B6903F00303012B16D1874B9B
:104430001B6803F48073002B05D07B68DB69802B3D
:1044400001D0012382E2814BDB6823F07C527B6840
:104450001B6A1B067D491343CB6040E07B68DB6928
:10446000002B23D0794B1B68784A43F080031360FC
:1044700005F08EFF786208E005F08AFF02467B6A4D
:10448000D31A022B01D9032360E2704B1B6803F49B
:104490008073002BF0D06D4BDB6823F07C527B687F
:1044A0001B6A1B0669491343CB6018E0674B1B6806
:1044B000664A23F08003136005F06AFF786208E023
:1044C00005F066FF02467B6AD31A022B01D903234B
:1044D0003CE25E4B1B6803F48073002BF0D17B68D9
:1044E0001B6803F00803002B36D07B685B69002B48
:1044F00019D0564B5B6F554A43F00103536705F0E3
:1045000047FF786208E005F043FF02467B6AD31A52
:10451000022B01D9032319E24C4B5B6F03F002031A
:10452000002BF0D018E0494B5B6F484A23F00103A1
:10453000536705F02DFF786208E005F029FF024679
:104540007B6AD31A022B01D90323FFE13F4B5B6F38
:1045500003F00203002BF0D17B681B6803F02003FB
:10456000002B36D07B689B69002B19D0374B1B681A
:10457000364A43F48053136005F00AFF786208E07E
:1045800005F006FF02467B6AD31A022B01D90323EA
:10459000DCE12E4B1B6803F40053002BF0D018E035
:1045A0002A4B1B68294A23F48053136005F0F0FE60
:1045B000786208E005F0ECFE02467B6AD31A022B13
:1045C00001D90323C2E1214B1B6803F40053002BE4
:1045D000F0D17B681B6803F00403002B00F0868099
:1045E0001B4B1B681A4A43F48073136005F0D0FE1E
:1045F000786208E005F0CCFE02467B6AD31A642B91
:1046000001D90323A2E1124B1B6803F48073002B32
:10461000F0D07B689B68012B06D10C4B1B6F0B4ABB
:1046200043F00103136732E07B689B68002B11D1D4
:10463000064B1B6F054A23F001031367034B1B6FE7
:10464000024A23F00403136721E000BF004402582C
:10465000004802587B689B68052B0CD1834B1B6F6D
:10466000824A43F004031367804B1B6F7F4A43F079
:10467000010313670BE07D4B1B6F7C4A23F00103A2
:1046800013677A4B1B6F794A23F0040313677B6827
:104690009B68002B15D005F07BFE78620AE005F0E0
:1046A00077FE02467B6AD31A41F28832934201D9DF
:1046B00003234BE16D4B1B6F03F00203002BEED085
:1046C00014E005F065FE78620AE005F061FE02463E
:1046D0007B6AD31A41F28832934201D9032335E130
:1046E000624B1B6F03F00203002BEED17B685B6A09
:1046F000002B00F02A815D4B1B6903F03803182B57
:1047000000F0BA807B685B6A022B40F09580574BC3
:104710001B68564A23F08073136005F039FE7862F7
:1047200008E005F035FE02467B6AD31A022B01D958
:1047300003230BE14D4B1B6803F00073002BF0D1FA
:104740004A4B9A6A4A4B13407A68916A7A68D26AED
:1047500012010A43454913438B627B681B6B013B83
:10476000C3F308027B685B6B013B5B029BB21A439D
:104770007B689B6B013B1B0403F4FE031A437B68BD
:10478000DB6B013B1B0603F0FE43384913430B630D
:10479000364BDB6A354A23F00103D362334B5A6B45
:1047A000344B13407A68926CD200304913434B6308
:1047B0002E4BDB6A23F00C027B681B6C2B491343E6
:1047C000CB622A4BDB6A23F002027B685B6C2749D1
:1047D0001343CB62254BDB6A244A43F48033D36214
:1047E000224BDB6A214A43F40033D3621F4BDB6A5E
:1047F0001E4A43F48023D3621C4BDB6A1B4A43F0FE
:104800000103D362194B1B68184A43F0807313608D
:1048100005F0BEFD786208E005F0BAFD02467B6A4D
:10482000D31A022B01D9032390E0104B1B6803F02D
:104830000073002BF0D088E00C4B1B680B4A23F070
:104840008073136005F0A4FD786208E005F0A0FD18
:1048500002467B6AD31A022B01D9032376E0034B6D
:104860001B6803F00073002BF0D16EE00044025887
:104870000CFCFFFF0700FFFF364B9B6A3B61354B8B
:104880001B6BFB607B685B6A012B31D03B6903F0DB
:1048900003027B689B6A9A422AD13B691B0903F099
:1048A0003F027B68DB6A9A4222D1FB68C3F30802AD
:1048B0007B681B6B013B9A421AD1FB685B0A03F0D1
:1048C0007F027B685B6B013B9A4211D1FB681B0C3A
:1048D00003F07F027B689B6B013B9A4208D1FB6827
:1048E0001B0E03F07F027B68DB6B013B9A4201D019
:1048F00001232BE0174B5B6BDB08C3F30C033B611D
:104900007B689B6C3A699A421FD0124BDB6A114A52
:1049100023F00103D36205F03BFD786200BF05F090
:1049200037FD02467B6A9342F9D00A4B5A6B0A4B19
:1049300013407A68926CD200064913434B63054BCF
:10494000DB6A044A43F00103D36200231846303780
:10495000BD4680BD004402580700FFFF80B586B009
:1049600000AF786039607B68002B01D101239CE1A6
:104970008A4B1B6803F00F033A689A4210D9874BA1
:104980001B6823F00F0285493B6813430B60834B80
:104990001B6803F00F033A689A4201D0012384E1B7
:1049A0007B681B6803F00403002B10D07B681A6936
:1049B0007B4B9B6903F070039A4208D9784B9B6943
:1049C00023F070027B681B69754913438B617B6818
:1049D0001B6803F00803002B10D07B685A69704BEA
:1049E000DB6903F070039A4208D96D4BDB6923F051
:1049F00070027B685B696A491343CB617B681B6803
:104A000003F01003002B10D07B689A69644BDB69BC
:104A100003F4E0639A4208D9614BDB6923F4E06256
:104A20007B689B695E491343CB617B681B6803F01D
:104A30002003002B10D07B68DA69594B1B6A03F006
:104A400070039A4208D9564B1B6A23F070027B68A8
:104A5000DB69534913430B627B681B6803F0020355
:104A6000002B10D07B68DA684D4B9B6903F00F0375
:104A70009A4208D94A4B9B6923F00F027B68DB6896
:104A8000474913438B617B681B6803F00103002BCC
:104A900055D0434B9B6923F470627B689B68404907
:104AA00013438B617B685B68022B07D13C4B1B680F
:104AB00003F40033002B21D10123F6E07B685B680F
:104AC000032B07D1364B1B6803F00073002B15D165
:104AD0000123EAE07B685B68012B07D1304B1B6840
:104AE00003F48073002B09D10123DEE02C4B1B68FB
:104AF00003F00403002B01D10123D6E0284B1B69EE
:104B000023F007027B685B68254913430B6105F0BE
:104B10003FFC78610AE005F03BFC02467B69D31A52
:104B200041F28832934201D90323BEE01C4B1B693A
:104B300003F038027B685B68DB009A42EBD17B684C
:104B40001B6803F00203002B10D07B68DA68144B5B
:104B50009B6903F00F039A4208D2114B9B6923F023
:104B60000F027B68DB680E4913438B610B4B1B689C
:104B700003F00F033A689A4214D2084B1B6823F0E3
:104B80000F0206493B6813430B60044B1B6803F09C
:104B90000F033A689A4205D0012386E000200052B4
:104BA000004402587B681B6803F00403002B10D0FC
:104BB0007B681A693F4B9B6903F070039A4208D2E5
:104BC0003C4B9B6923F070027B681B693949134396
:104BD0008B617B681B6803F00803002B10D07B6897
:104BE0005A69344BDB6903F070039A4208D2314BA7
:104BF000DB6923F070027B685B692E491343CB614C
:104C00007B681B6803F01003002B10D07B689A6947
:104C1000284BDB6903F4E0639A4208D2254BDB6939
:104C200023F4E0627B689B6922491343CB617B6874
:104C30001B6803F02003002B10D07B68DA691D4B42
:104C40001B6A03F070039A4208D21A4B1B6A23F0C6
:104C500070027B68DB69174913430B6200F09EF812
:104C60000246144B9B691B0A03F00F031249CB5CED
:104C700003F01F0322FA03F33B610E4B9B6903F021
:104C80000F030D4AD35C03F01F033A6922FA03F3C2
:104C90000A4A13600A4A3B6913600A4B1B681846AC
:104CA000FBF7F0FE0346FB73FB7B18461837BD4647
:104CB00080BD00BF004402580C2302088400002479
:104CC000800000247800002480B58CB000AFF8602C
:104CD000B9607A60FB68002B2AD12D4BD3F8E03005
:104CE0002B4A43F00103C2F8E030294BD3F8E030FF
:104CF00003F00103BB61BB694FF48073FB610223C6
:104D00003B620323BB6200237B620023FB6207F14B
:104D10001C0319461F4802F01BF81D4B1B6923F0AA
:104D2000FE72B9687B680B43194913430B612AE093
:104D3000174BD3F8E030164A43F00403C2F8E030D2
:104D4000134BD3F8E03003F004037B617B694FF42D
:104D50000073FB6102233B620323BB6200237B627F
:104D60000023FB6207F11C0319460B4801F0F0FF1A
:104D7000074B1B6923F07E427B68D901BB680B435C
:104D8000034913430B6100BF3037BD4680BD00BFF0
:104D900000440258000002580008025880B489B04C
:104DA00000AFB34B1B6903F03803182B00F2558199
:104DB00001A252F823F000BF1D4E00085B5000080E
:104DC0005B5000085B5000085B5000085B50000817
:104DD0005B5000085B500008434E00085B50000821
:104DE0005B5000085B5000085B5000085B500008F7
:104DF0005B5000085B500008494E00085B500008FB
:104E00005B5000085B5000085B5000085B500008D6
:104E10005B5000085B5000084F4E0008944B1B6825
:104E200003F02003002B09D0914B1B68DB0803F033
:104E30000303904A22FA03F3BB6111E18D4BBB617E
:104E40000EE18D4BBB610BE18C4BBB6108E1884BE4
:104E50009B6A03F003037B61854B9B6A1B0903F08C
:104E60003F033B61824BDB6A03F00103FB60804B35
:104E70005B6BDB08C3F30C03FA6802FB03F307EE7A
:104E8000903AF8EE677AC7ED027A3B69002B00F0A2
:104E9000E1807B69022B00F083807B69022B00F2AA
:104EA000A1807B69002B03D07B69012B56D099E050
:104EB0006F4B1B6803F02003002B2DD06C4B1B683D
:104EC000DB0803F003036B4A22FA03F37B607B6881
:104ED00007EE903AF8EE676A3B6907EE903AF8EE13
:104EE000677A86EEA77A624B1B6BC3F3080307EE63
:104EF000903AF8EE676A97ED026ADFED615AC6EE06
:104F0000257A76EEA77AF7EE006A77EEA67A67EE54
:104F1000277AC7ED077A87E03B6907EE903AF8EE0B
:104F2000677ADFED586A86EEA77A514B1B6BC3F3A5
:104F3000080307EE903AF8EE676A97ED026ADFED34
:104F4000505AC6EE257A76EEA77AF7EE006A77EE2B
:104F5000A67A67EE277AC7ED077A65E03B6907EE28
:104F6000903AF8EE677ADFED486A86EEA77A404B12
:104F70001B6BC3F3080307EE903AF8EE676A97EDF0
:104F8000026ADFED3F5AC6EE257A76EEA77AF7EE93
:104F9000006A77EEA67A67EE277AC7ED077A43E0D4
:104FA0003B6907EE903AF8EE677ADFED386A86EEF5
:104FB000A77A2F4B1B6BC3F3080307EE903AF8EE6A
:104FC000676A97ED026ADFED2E5AC6EE257A76EE15
:104FD000A77AF7EE006A77EEA67A67EE277AC7ED32
:104FE000077A21E03B6907EE903AF8EE677ADFED49
:104FF000266A86EEA77A1E4B1B6BC3F3080307EEE7
:10500000903AF8EE676A97ED026ADFED1D5AC6EE38
:10501000257A76EEA77AF7EE006A77EEA67A67EE43
:10502000277AC7ED077A00BF114B1B6B5B0A03F0B1
:105030007F0301333B603B6807EE903AB8EE677A36
:10504000D7ED076AC6EE877AFCEEE77A17EE903A5C
:10505000BB6105E00023BB6102E0074BBB6100BF01
:10506000BB6918462437BD465DF8047B704700BF16
:10507000004402580090D00300093D0000366E0144
:10508000000000460024744C0024744A001BB74BF7
:1050900080B582B000AFFFF781FE0246104B9B69DE
:1050A0001B0A03F00F030F49CB5C03F01F0322FA26
:1050B00003F37B600A4B9B6903F00F03094AD35C3F
:1050C00003F01F037A6822FA03F3074A1360074AC2
:1050D0007B681360044B1B6818460837BD4680BDCB
:1050E000004402580C23020884000024800000249D
:1050F00080B500AFFFF7CCFF0246064BDB691B090A
:1051000003F007030449CB5C03F01F0322FA03F307
:10511000184680BD004402580C23020880B500AF39
:10512000FFF7B6FF0246064BDB691B0A03F00703D5
:105130000449CB5C03F01F0322FA03F3184680BD39
:10514000004402580C23020880B483B000AF78609A
:1051500039607B683F221A601A4B1B6903F0070213
:105160007B685A60174B9B6903F470627B689A6096
:10517000144B9B6903F00F027B68DA60114B9B694B
:1051800003F070027B681A610E4BDB6903F070025A
:105190007B685A610B4BDB6903F4E0627B689A61C0
:1051A000084B1B6A03F070027B68DA61064B1B68D0
:1051B00003F00F023B681A6000BF0C37BD465DF874
:1051C000047B704700440258002000522DE9B04F84
:1051D000C6B000AFC7F80401002387F817310023D9
:1051E00087F81631D7F80431D3E9002302F00064C0
:1051F000002554EA050349D0D7F804315B6EB3F5B6
:10520000401F2FD0B3F5401F28D8B3F5001F1AD088
:10521000B3F5001F22D8002B03D0B3F5801F07D0B1
:105220001CE0AB4BDB6AAA4A43F40033D3621AE0BA
:10523000D7F8043108330221184601F025FC034653
:1052400087F817310FE0D7F80431283302211846C8
:1052500001F0CCFC034687F8173104E0012387F8FE
:10526000173100E000BF97F81731002B0AD1984B97
:105270001B6D23F44011D7F804315B6E944A0B4345
:10528000136503E097F8173187F81631D7F8043122
:10529000D3E9002302F480784FF0000958EA0903AB
:1052A00047D0D7F804319B6D042B2AD801A252F8BD
:1052B00023F000BFC9520008D7520008ED52000881
:1052C0000B5300080B530008814BDB6A804A43F400
:1052D0000033D3621AE0D7F80431083300211846AE
:1052E00001F0D2FB034687F817310FE0D7F80431FD
:1052F00028330021184601F079FC034687F817315E
:1053000004E0012387F8173100E000BF97F8173158
:10531000002B0AD16E4B1B6D23F00701D7F8043127
:105320009B6D6B4A0B43136503E097F8173187F8C1
:105330001631D7F80431D3E9002302F4806A4FF024
:10534000000B5AEA0B035BD0D7F80431D3F8A43032
:10535000B3F5200F3BD0B3F5200F34D8B3F5000FD1
:1053600037D0B3F5000F2ED8B3F5C00F33D0B3F557
:10537000C00F28D8B3F5800F1AD0B3F5800F22D80C
:10538000002B03D0B3F5001F07D01CE0504BDB6AA5
:105390004F4A43F40033D3621EE0D7F80431083398
:1053A0000021184601F070FB034687F8173113E01F
:1053B000D7F8043128330021184601F017FC0346C2
:1053C00087F8173108E0012387F8173104E000BFA0
:1053D00002E000BF00E000BF97F81731002B0BD1AF
:1053E0003B4B9B6D23F46001D7F80431D3F8A43014
:1053F000374A0B43936503E097F8173187F8163166
:10540000D7F80431D3E9002302F40063C7F8F83079
:105410000023C7F8FC30D7E93E120B4613435DD09A
:10542000D7F80431D3F8A830B3F1A06F3BD0B3F173
:10543000A06F34D8B3F1806F37D0B3F1806F2ED81E
:10544000B3F1407F33D0B3F1407F28D8B3F1007F70
:105450001AD0B3F1007F22D8002B03D0B3F1807FA4
:1054600007D01CE01A4BDB6A194A43F40033D362BD
:105470001EE0D7F8043108330021184601F004FB80
:10548000034687F8173113E0D7F804312833002199
:10549000184601F0ABFB034687F8173108E00123FB
:1054A00087F8173104E000BF02E000BF00E000BF52
:1054B00097F81731002B0DD1054B9B6D23F0E06160
:1054C000D7F80431D3F8A830014A0B43936505E0BF
:1054D0000044025897F8173187F81631D7F804318D
:1054E000D3E9002302F00073C7F8F0300023C7F8B7
:1054F000F430D7E93C120B4613433AD0D7F80431C5
:10550000DB6C302B1FD0302B19D8202B0CD0202B4C
:1055100015D8002B19D0102B11D1AA4BDB6AA94A40
:1055200043F40033D36211E0D7F804310833022189
:10553000184601F0A9FA034687F8173106E001235F
:1055400087F8173102E000BF00E000BF97F817317D
:10555000002B0AD19B4BDB6C23F03001D7F80431D0
:10556000DB6C984A0B43D36403E097F8173187F854
:105570001631D7F80431D3E9002302F48053C7F879
:10558000E8300023C7F8EC30D7E93A120B46134352
:1055900051D0D7F80431DB6DB3F5804F35D0B3F57A
:1055A000804F2ED8B3F5405F31D0B3F5405F28D897
:1055B000B3F5005F1AD0B3F5005F22D8002B03D0FB
:1055C000B3F5805F07D01CE07E4BDB6A7D4A43F475
:1055D0000033D3621CE0D7F80431083300211846A9
:1055E00001F052FA034687F8173111E0D7F8043179
:1055F00028330021184601F0F9FA034687F81731DD
:1056000006E0012387F8173102E000BF00E000BF89
:1056100097F81731002B0AD16A4B1B6D23F4E04138
:10562000D7F80431DB6D674A0B43136503E097F845
:10563000173187F81631D7F80431D3E9002302F483
:105640000053C7F8E0300023C7F8E430D7E9381238
:105650000B46134353D0D7F804311B6EB3F5A02F7C
:1056600033D0B3F5A02F2CD8B3F5802F2FD0B3F5BE
:10567000802F26D8B3F5403F2BD0B3F5403F20D83C
:10568000B3F5003F12D0B3F5003F1AD8002B22D05B
:10569000B3F5803F15D1D7F80431083301211846FE
:1056A00001F0F2F9034687F8173115E0D7F8043115
:1056B00028330121184601F099FA034687F817317B
:1056C0000AE0012387F8173106E000BF04E000BFBD
:1056D00002E000BF00E000BF97F81731002B0AD1AD
:1056E000384B1B6D23F4E021D7F804311B6E354A8B
:1056F0000B43136503E097F8173187F81631D7F895
:105700000431D3E9002302F48043C7F8D8300023E2
:10571000C7F8DC30D7E936120B46134358D0D7F818
:105720000431D3F8AC30B3F1A04F33D0B3F1A04F74
:105730002CD8B3F1804F2FD0B3F1804F26D8B3F1DE
:10574000405F2BD0B3F1405F20D8B3F1005F12D09F
:10575000B3F1005F1AD8002B22D0B3F1805F15D1CE
:10576000D7F8043108330121184601F08DF90346BA
:1057700087F8173115E0D7F804312833012118468E
:1057800001F034FA034687F817310AE0012387F85D
:10579000173106E000BF04E000BF02E000BF00E0F8
:1057A00000BF97F81731002B0ED1064B9B6D23F0ED
:1057B000E041D7F80431D3F8AC30024A0B4393658B
:1057C00006E000BF0044025897F8173187F81631F9
:1057D000D7F80431D3E9002302F40043C7F8D030EE
:1057E0000023C7F8D430D7E934120B46134337D01F
:1057F000D7F80431DB6EB3F1005F0ED0B3F1005F78
:1058000016D8002B18D0B3F1805F11D1C44BDB6ADE
:10581000C34A43F40033D3620FE0D7F804310833AE
:105820000121184601F030F9034687F8173104E0EA
:10583000012387F8173100E000BF97F81731002BDC
:105840000AD1B74B1B6D23F04051D7F80431DB6E02
:10585000B34A0B43136503E097F8173187F8163105
:10586000D7F80431D3E9002302F08073C7F8C830B9
:105870000023C7F8CC30D7E932120B46134339D096
:10588000D7F804319B6C032B1CD801A252F823F0EB
:10589000CD580008A1580008AF580008CD5800089E
:1058A0009F4BDB6A9E4A43F40033D3620FE0D7F884
:1058B000043108330221184601F0E6F8034687F860
:1058C000173104E0012387F8173100E000BF97F893
:1058D0001731002B0AD1924BDB6C23F00301D7F870
:1058E00004319B6C8E4A0B43D36403E097F8173165
:1058F00087F81631D7F80431D3E9002302F4800386
:10590000C7F8C0300023C7F8C430D7E930120B46BF
:10591000134300F09980834B1B68824A43F48073E1
:10592000136004F035FDC7F810010BE004F030FD02
:105930000246D7F81031D31A642B03D9032387F812
:10594000173105E0774B1B6803F48073002BEDD013
:1059500097F81731002B73D1714B1A6FD7F80431B8
:10596000D3F8B030534003F44073002B15D06C4B88
:105970001B6F23F44073C7F80C31694B1B6F684AE7
:1059800043F480331367664B1B6F654A23F48033FF
:105990001367634AD7F80C311367D7F80431D3F88B
:1059A000B030B3F5807F18D104F0F2FCC7F81001D5
:1059B0000DE004F0EDFC0246D7F81031D21A41F2A6
:1059C00088339A4203D9032387F8173105E0544BF3
:1059D0001B6F03F00203002BEBD097F81731002B5D
:1059E00029D1D7F80431D3F8B03003F44073B3F5BC
:1059F000407F0ED14A4B1B6923F47C51D7F8043108
:105A0000D3F8B0301A09484B1340454A0B43136191
:105A100005E0434B1B69424A23F47C531361404B1E
:105A2000196FD7F80431D3F8B030C3F30B033C4AF5
:105A30000B43136708E097F8173187F8163103E036
:105A400097F8173187F81631D7F80431D3E90023D6
:105A500002F00103C7F8B8300023C7F8BC30D7E91B
:105A60002E120B46134300F08F80D7F804319B6F42
:105A7000282B71D801A252F823F000BF615B000807
:105A8000595B0008595B0008595B0008595B000826
:105A9000595B0008595B0008595B00082D5B000842
:105AA000595B0008595B0008595B0008595B000806
:105AB000595B0008595B0008595B0008435B00080C
:105AC000595B0008595B0008595B0008595B0008E6
:105AD000595B0008595B0008595B0008615B0008CE
